{
  "contractName": "Manufacturer",
  "abi": [
    {
      "inputs": [],
      "payable": false,
      "stateMutability": "nonpayable",
      "type": "constructor"
    },
    {
      "anonymous": false,
      "inputs": [
        {
          "indexed": true,
          "internalType": "address",
          "name": "_account",
          "type": "address"
        }
      ],
      "name": "ManufacturerAdded",
      "type": "event"
    },
    {
      "anonymous": false,
      "inputs": [
        {
          "indexed": true,
          "internalType": "address",
          "name": "_account",
          "type": "address"
        }
      ],
      "name": "ManufacturerRemoved",
      "type": "event"
    },
    {
      "constant": true,
      "inputs": [
        {
          "internalType": "address",
          "name": "_account",
          "type": "address"
        }
      ],
      "name": "isManufacturer",
      "outputs": [
        {
          "internalType": "bool",
          "name": "",
          "type": "bool"
        }
      ],
      "payable": false,
      "stateMutability": "view",
      "type": "function"
    },
    {
      "constant": false,
      "inputs": [
        {
          "internalType": "address",
          "name": "_account",
          "type": "address"
        }
      ],
      "name": "addManufacturer",
      "outputs": [],
      "payable": false,
      "stateMutability": "nonpayable",
      "type": "function"
    },
    {
      "constant": false,
      "inputs": [],
      "name": "removeManufacturer",
      "outputs": [],
      "payable": false,
      "stateMutability": "nonpayable",
      "type": "function"
    }
  ],
  "bytecode": "0x608060405234801561001057600080fd5b5061002933600061005960201b6101831790919060201c565b60405133907f561138658ca49a8540dc70dcfe64c9026c1c5b9344642242dd6562970f9c127890600090a26100e3565b6001600160a01b03811661006c57600080fd5b61007f82826001600160e01b036100ae16565b1561008957600080fd5b6001600160a01b0316600090815260209190915260409020805460ff19166001179055565b60006001600160a01b0382166100c357600080fd5b506001600160a01b03166000908152602091909152604090205460ff1690565b61024c806100f26000396000f3fe608060405234801561001057600080fd5b50600436106100415760003560e01c806317d4a491146100465780635f8a5afa14610080578063f89620e1146100a8575b600080fd5b61006c6004803603602081101561005c57600080fd5b50356001600160a01b03166100b0565b604080519115158252519081900360200190f35b6100a66004803603602081101561009657600080fd5b50356001600160a01b03166100c8565b005b6100a6610110565b60006100c2818363ffffffff61014e16565b92915050565b6100d960008263ffffffff61018316565b6040516001600160a01b038216907f561138658ca49a8540dc70dcfe64c9026c1c5b9344642242dd6562970f9c127890600090a250565b61012160003363ffffffff6101cf16565b60405133907f2fed5abf6a80d6dfe30b4895481b2fc5d7dce5f8f7b931832f4a2947d5040c7f90600090a2565b60006001600160a01b03821661016357600080fd5b506001600160a01b03166000908152602091909152604090205460ff1690565b6001600160a01b03811661019657600080fd5b6101a0828261014e565b156101aa57600080fd5b6001600160a01b0316600090815260209190915260409020805460ff19166001179055565b6001600160a01b0381166101e257600080fd5b6101ec828261014e565b6101f557600080fd5b6001600160a01b0316600090815260209190915260409020805460ff1916905556fea265627a7a7231582036f64a3e8cec72e988f59a6883a83a30a223605434edb0c4fdfd2c12de57ce3a64736f6c63430005100032",
  "source": "// SPDX-License-Identifier: MIT\r\npragma solidity >=0.4.21 <0.9.0;\r\n\r\nimport \"./Roles.sol\";\r\n\r\ncontract Manufacturer {\r\n  using Roles for Roles.Role;\r\n\r\n  event ManufacturerAdded(address indexed _account);\r\n  event ManufacturerRemoved(address indexed _account);\r\n\r\n  Roles.Role  manufacturersList;\r\n\r\n  constructor() public {\r\n    manufacturersList.addRole(msg.sender);\r\n    emit ManufacturerAdded(msg.sender);\r\n  }\r\n\r\n  ///@dev Modifiers for Manufacturer.\r\n  modifier onlyManufacturer() {\r\n    require(isManufacturer(msg.sender));\r\n    _;\r\n  }\r\n  /*-----------------------------*/\r\n\r\n  ///@dev Manufacturer Utility functions.\r\n  function isManufacturer(address _account) public view returns (bool) {\r\n    return manufacturersList.hasRole(_account);\r\n  }\r\n\r\n  function addManufacturer(address _account ) public {\r\n    manufacturersList.addRole(_account);\r\n    emit ManufacturerAdded(_account);\r\n  }\r\n\r\n  function removeManufacturer() public {\r\n    manufacturersList.removeRole(msg.sender);\r\n    emit ManufacturerRemoved(msg.sender);\r\n  }\r\n  /*-----------------------------*/\r\n\r\n}\r\n",
  "sourcePath": "C:\\Users\\Kenil\\Desktop\\DreamTeam_LOC\\basbhai\\DreamTeam_loc5.0\\contracts\\rolesUtils[deprecated]\\Manufacturer.sol",
  "compiler": {
    "name": "solc",
    "version": "0.5.16+commit.9c3226ce.Emscripten.clang"
  },
  "schemaVersion": "3.4.11",
  "updatedAt": "2023-03-12T05:01:53.983Z",
  "networkType": "ethereum",
  "devdoc": {
    "methods": {
      "isManufacturer(address)": {
        "details": "Manufacturer Utility functions."
      }
    }
  },
  "userdoc": {
    "methods": {}
  }
}