{
  "contractName": "SupplyChain",
  "abi": [
    {
      "inputs": [],
      "payable": true,
      "stateMutability": "payable",
      "type": "constructor"
    },
    {
      "anonymous": false,
      "inputs": [
        {
          "indexed": false,
          "internalType": "uint256",
          "name": "uid",
          "type": "uint256"
        }
      ],
      "name": "Manufactured",
      "type": "event"
    },
    {
      "anonymous": false,
      "inputs": [
        {
          "indexed": true,
          "internalType": "address",
          "name": "_account",
          "type": "address"
        }
      ],
      "name": "ManufacturerAdded",
      "type": "event"
    },
    {
      "anonymous": false,
      "inputs": [
        {
          "indexed": false,
          "internalType": "uint256",
          "name": "uid",
          "type": "uint256"
        }
      ],
      "name": "PurchasedByCustomer",
      "type": "event"
    },
    {
      "anonymous": false,
      "inputs": [
        {
          "indexed": false,
          "internalType": "uint256",
          "name": "uid",
          "type": "uint256"
        }
      ],
      "name": "PurchasedByThirdParty",
      "type": "event"
    },
    {
      "anonymous": false,
      "inputs": [
        {
          "indexed": false,
          "internalType": "uint256",
          "name": "uid",
          "type": "uint256"
        }
      ],
      "name": "ReceivedByCustomer",
      "type": "event"
    },
    {
      "anonymous": false,
      "inputs": [
        {
          "indexed": false,
          "internalType": "uint256",
          "name": "uid",
          "type": "uint256"
        }
      ],
      "name": "ReceivedByDeliveryHub",
      "type": "event"
    },
    {
      "anonymous": false,
      "inputs": [
        {
          "indexed": false,
          "internalType": "uint256",
          "name": "uid",
          "type": "uint256"
        }
      ],
      "name": "ReceivedByThirdParty",
      "type": "event"
    },
    {
      "anonymous": false,
      "inputs": [
        {
          "indexed": false,
          "internalType": "uint256",
          "name": "uid",
          "type": "uint256"
        }
      ],
      "name": "ShippedByDeliveryHub",
      "type": "event"
    },
    {
      "anonymous": false,
      "inputs": [
        {
          "indexed": false,
          "internalType": "uint256",
          "name": "uid",
          "type": "uint256"
        }
      ],
      "name": "ShippedByManufacturer",
      "type": "event"
    },
    {
      "anonymous": false,
      "inputs": [
        {
          "indexed": false,
          "internalType": "uint256",
          "name": "uid",
          "type": "uint256"
        }
      ],
      "name": "ShippedByThirdParty",
      "type": "event"
    },
    {
      "constant": true,
      "inputs": [],
      "name": "uid",
      "outputs": [
        {
          "internalType": "uint256",
          "name": "",
          "type": "uint256"
        }
      ],
      "payable": false,
      "stateMutability": "view",
      "type": "function"
    },
    {
      "constant": true,
      "inputs": [
        {
          "internalType": "address",
          "name": "_account",
          "type": "address"
        }
      ],
      "name": "hasManufacturerRole",
      "outputs": [
        {
          "internalType": "bool",
          "name": "",
          "type": "bool"
        }
      ],
      "payable": false,
      "stateMutability": "view",
      "type": "function"
    },
    {
      "constant": false,
      "inputs": [
        {
          "internalType": "address",
          "name": "_account",
          "type": "address"
        }
      ],
      "name": "addManufacturerRole",
      "outputs": [],
      "payable": false,
      "stateMutability": "nonpayable",
      "type": "function"
    },
    {
      "constant": true,
      "inputs": [
        {
          "internalType": "address",
          "name": "_account",
          "type": "address"
        }
      ],
      "name": "hasThirdPartyRole",
      "outputs": [
        {
          "internalType": "bool",
          "name": "",
          "type": "bool"
        }
      ],
      "payable": false,
      "stateMutability": "view",
      "type": "function"
    },
    {
      "constant": false,
      "inputs": [
        {
          "internalType": "address",
          "name": "_account",
          "type": "address"
        }
      ],
      "name": "addThirdPartyRole",
      "outputs": [],
      "payable": false,
      "stateMutability": "nonpayable",
      "type": "function"
    },
    {
      "constant": true,
      "inputs": [
        {
          "internalType": "address",
          "name": "_account",
          "type": "address"
        }
      ],
      "name": "hasDeliveryHubRole",
      "outputs": [
        {
          "internalType": "bool",
          "name": "",
          "type": "bool"
        }
      ],
      "payable": false,
      "stateMutability": "view",
      "type": "function"
    },
    {
      "constant": false,
      "inputs": [
        {
          "internalType": "address",
          "name": "_account",
          "type": "address"
        }
      ],
      "name": "addDeliveryHubRole",
      "outputs": [],
      "payable": false,
      "stateMutability": "nonpayable",
      "type": "function"
    },
    {
      "constant": true,
      "inputs": [
        {
          "internalType": "address",
          "name": "_account",
          "type": "address"
        }
      ],
      "name": "hasCustomerRole",
      "outputs": [
        {
          "internalType": "bool",
          "name": "",
          "type": "bool"
        }
      ],
      "payable": false,
      "stateMutability": "view",
      "type": "function"
    },
    {
      "constant": false,
      "inputs": [
        {
          "internalType": "address",
          "name": "_account",
          "type": "address"
        }
      ],
      "name": "addCustomerRole",
      "outputs": [],
      "payable": false,
      "stateMutability": "nonpayable",
      "type": "function"
    },
    {
      "constant": false,
      "inputs": [
        {
          "internalType": "string",
          "name": "manufacturerName",
          "type": "string"
        },
        {
          "internalType": "string",
          "name": "manufacturerDetails",
          "type": "string"
        },
        {
          "internalType": "string",
          "name": "manufacturerLongitude",
          "type": "string"
        },
        {
          "internalType": "string",
          "name": "manufacturerLatitude",
          "type": "string"
        },
        {
          "internalType": "string",
          "name": "productName",
          "type": "string"
        },
        {
          "internalType": "uint256",
          "name": "productCode",
          "type": "uint256"
        },
        {
          "internalType": "uint256",
          "name": "productPrice",
          "type": "uint256"
        },
        {
          "internalType": "string",
          "name": "productCategory",
          "type": "string"
        },
        {
          "internalType": "string",
          "name": "image",
          "type": "string"
        }
      ],
      "name": "manufactureProduct",
      "outputs": [],
      "payable": false,
      "stateMutability": "nonpayable",
      "type": "function"
    },
    {
      "constant": false,
      "inputs": [
        {
          "internalType": "uint256",
          "name": "_uid",
          "type": "uint256"
        }
      ],
      "name": "purchaseByThirdParty",
      "outputs": [],
      "payable": false,
      "stateMutability": "nonpayable",
      "type": "function"
    },
    {
      "constant": false,
      "inputs": [
        {
          "internalType": "uint256",
          "name": "_uid",
          "type": "uint256"
        }
      ],
      "name": "shipToThirdParty",
      "outputs": [],
      "payable": false,
      "stateMutability": "nonpayable",
      "type": "function"
    },
    {
      "constant": false,
      "inputs": [
        {
          "internalType": "uint256",
          "name": "_uid",
          "type": "uint256"
        },
        {
          "internalType": "string",
          "name": "thirdPartyLongitude",
          "type": "string"
        },
        {
          "internalType": "string",
          "name": "thirdPartyLatitude",
          "type": "string"
        }
      ],
      "name": "receiveByThirdParty",
      "outputs": [],
      "payable": false,
      "stateMutability": "nonpayable",
      "type": "function"
    },
    {
      "constant": false,
      "inputs": [
        {
          "internalType": "uint256",
          "name": "_uid",
          "type": "uint256"
        }
      ],
      "name": "purchaseByCustomer",
      "outputs": [],
      "payable": false,
      "stateMutability": "nonpayable",
      "type": "function"
    },
    {
      "constant": false,
      "inputs": [
        {
          "internalType": "uint256",
          "name": "_uid",
          "type": "uint256"
        }
      ],
      "name": "shipByThirdParty",
      "outputs": [],
      "payable": false,
      "stateMutability": "nonpayable",
      "type": "function"
    },
    {
      "constant": false,
      "inputs": [
        {
          "internalType": "uint256",
          "name": "_uid",
          "type": "uint256"
        },
        {
          "internalType": "string",
          "name": "deliveryHubLongitude",
          "type": "string"
        },
        {
          "internalType": "string",
          "name": "deliveryHubLatitude",
          "type": "string"
        }
      ],
      "name": "receiveByDeliveryHub",
      "outputs": [],
      "payable": false,
      "stateMutability": "nonpayable",
      "type": "function"
    },
    {
      "constant": false,
      "inputs": [
        {
          "internalType": "uint256",
          "name": "_uid",
          "type": "uint256"
        }
      ],
      "name": "shipByDeliveryHub",
      "outputs": [],
      "payable": false,
      "stateMutability": "nonpayable",
      "type": "function"
    },
    {
      "constant": false,
      "inputs": [
        {
          "internalType": "uint256",
          "name": "_uid",
          "type": "uint256"
        }
      ],
      "name": "receiveByCustomer",
      "outputs": [],
      "payable": false,
      "stateMutability": "nonpayable",
      "type": "function"
    },
    {
      "constant": true,
      "inputs": [
        {
          "internalType": "uint256",
          "name": "_uid",
          "type": "uint256"
        },
        {
          "internalType": "string",
          "name": "_type",
          "type": "string"
        },
        {
          "internalType": "uint256",
          "name": "i",
          "type": "uint256"
        }
      ],
      "name": "fetchProductPart1",
      "outputs": [
        {
          "internalType": "uint256",
          "name": "",
          "type": "uint256"
        },
        {
          "internalType": "uint256",
          "name": "",
          "type": "uint256"
        },
        {
          "internalType": "address",
          "name": "",
          "type": "address"
        },
        {
          "internalType": "address",
          "name": "",
          "type": "address"
        },
        {
          "internalType": "string",
          "name": "",
          "type": "string"
        },
        {
          "internalType": "string",
          "name": "",
          "type": "string"
        },
        {
          "internalType": "string",
          "name": "",
          "type": "string"
        },
        {
          "internalType": "string",
          "name": "",
          "type": "string"
        },
        {
          "internalType": "string",
          "name": "",
          "type": "string"
        }
      ],
      "payable": false,
      "stateMutability": "view",
      "type": "function"
    },
    {
      "constant": true,
      "inputs": [
        {
          "internalType": "uint256",
          "name": "_uid",
          "type": "uint256"
        },
        {
          "internalType": "string",
          "name": "_type",
          "type": "string"
        },
        {
          "internalType": "uint256",
          "name": "i",
          "type": "uint256"
        }
      ],
      "name": "fetchProductPart2",
      "outputs": [
        {
          "internalType": "uint256",
          "name": "",
          "type": "uint256"
        },
        {
          "internalType": "string",
          "name": "",
          "type": "string"
        },
        {
          "internalType": "uint256",
          "name": "",
          "type": "uint256"
        },
        {
          "internalType": "uint256",
          "name": "",
          "type": "uint256"
        },
        {
          "internalType": "string",
          "name": "",
          "type": "string"
        },
        {
          "internalType": "enum Structure.State",
          "name": "",
          "type": "uint8"
        },
        {
          "internalType": "address",
          "name": "",
          "type": "address"
        },
        {
          "internalType": "string",
          "name": "",
          "type": "string"
        }
      ],
      "payable": false,
      "stateMutability": "view",
      "type": "function"
    },
    {
      "constant": true,
      "inputs": [
        {
          "internalType": "uint256",
          "name": "_uid",
          "type": "uint256"
        },
        {
          "internalType": "string",
          "name": "_type",
          "type": "string"
        },
        {
          "internalType": "uint256",
          "name": "i",
          "type": "uint256"
        }
      ],
      "name": "fetchProductPart3",
      "outputs": [
        {
          "internalType": "string",
          "name": "",
          "type": "string"
        },
        {
          "internalType": "address",
          "name": "",
          "type": "address"
        },
        {
          "internalType": "string",
          "name": "",
          "type": "string"
        },
        {
          "internalType": "string",
          "name": "",
          "type": "string"
        },
        {
          "internalType": "address",
          "name": "",
          "type": "address"
        },
        {
          "internalType": "string",
          "name": "",
          "type": "string"
        }
      ],
      "payable": false,
      "stateMutability": "view",
      "type": "function"
    },
    {
      "constant": true,
      "inputs": [],
      "name": "fetchProductCount",
      "outputs": [
        {
          "internalType": "uint256",
          "name": "",
          "type": "uint256"
        }
      ],
      "payable": false,
      "stateMutability": "view",
      "type": "function"
    },
    {
      "constant": true,
      "inputs": [
        {
          "internalType": "uint256",
          "name": "_uid",
          "type": "uint256"
        }
      ],
      "name": "fetchProductHistoryLength",
      "outputs": [
        {
          "internalType": "uint256",
          "name": "",
          "type": "uint256"
        }
      ],
      "payable": false,
      "stateMutability": "view",
      "type": "function"
    },
    {
      "constant": true,
      "inputs": [
        {
          "internalType": "uint256",
          "name": "_uid",
          "type": "uint256"
        }
      ],
      "name": "fetchProductState",
      "outputs": [
        {
          "internalType": "enum Structure.State",
          "name": "",
          "type": "uint8"
        }
      ],
      "payable": false,
      "stateMutability": "view",
      "type": "function"
    },
    {
      "constant": false,
      "inputs": [
        {
          "internalType": "string",
          "name": "tran",
          "type": "string"
        }
      ],
      "name": "setTransactionHashOnManufacture",
      "outputs": [],
      "payable": false,
      "stateMutability": "nonpayable",
      "type": "function"
    },
    {
      "constant": false,
      "inputs": [
        {
          "internalType": "uint256",
          "name": "_uid",
          "type": "uint256"
        },
        {
          "internalType": "string",
          "name": "tran",
          "type": "string"
        }
      ],
      "name": "setTransactionHash",
      "outputs": [],
      "payable": false,
      "stateMutability": "nonpayable",
      "type": "function"
    }
  ],
  "bytecode": "0x6080604052600280546001600160a01b031916331790556001808055600055614b388061002d6000396000f3fe608060405234801561001057600080fd5b506004361061018e5760003560e01c80638290f859116100de578063e09efdbd11610097578063ee707c1e11610071578063ee707c1e146112ec578063f16791b314611309578063f4121b6714611311578063f514ce36146113375761018e565b8063e09efdbd14610e38578063e2f1fe1414611207578063e55128ea146112485761018e565b80638290f859146109f05780638eee90ea14610a1657806398c9588914610b46578063b843bdee14610dcf578063cd2885e014610dec578063d44bebcc14610e125761018e565b80636000ada11161014b5780636f1fe8d7116101255780636f1fe8d7146106d75780637217eb2e1461090b57806372df397e14610928578063786ea161146109455761018e565b80636000ada114610397578063658db497146103bd5780636cf07e24146106ba5761018e565b8063024edf9a146101935780630a036e25146101cd5780633334529e146101ec578063405ba7ef1461031c578063453dd4af1461034b5780635212e51014610371575b600080fd5b6101b9600480360360208110156101a957600080fd5b50356001600160a01b031661133f565b604080519115158252519081900360200190f35b6101ea600480360360208110156101e357600080fd5b503561137a565b005b6101ea6004803603606081101561020257600080fd5b81359190810190604081016020820135600160201b81111561022357600080fd5b82018360208201111561023557600080fd5b803590602001918460018302840111600160201b8311171561025657600080fd5b91908080601f0160208091040260200160405190810160405280939291908181526020018383808284376000920191909152509295949360208101935035915050600160201b8111156102a857600080fd5b8201836020820111156102ba57600080fd5b803590602001918460018302840111600160201b831117156102db57600080fd5b91908080601f01602080910402602001604051908101604052809392919081815260200183838082843760009201919091525092955061175e945050505050565b6103396004803603602081101561033257600080fd5b5035611bd9565b60408051918252519081900360200190f35b6101ea6004803603602081101561036157600080fd5b50356001600160a01b0316611beb565b6101ea6004803603602081101561038757600080fd5b50356001600160a01b0316611c3b565b6101b9600480360360208110156103ad57600080fd5b50356001600160a01b0316611c87565b61046a600480360360608110156103d357600080fd5b81359190810190604081016020820135600160201b8111156103f457600080fd5b82018360208201111561040657600080fd5b803590602001918460018302840111600160201b8311171561042757600080fd5b91908080601f0160208091040260200160405190810160405280939291908181526020018383808284376000920191909152509295505091359250611cbb915050565b604051808a8152602001898152602001886001600160a01b03166001600160a01b03168152602001876001600160a01b03166001600160a01b03168152602001806020018060200180602001806020018060200186810386528b818151815260200191508051906020019080838360005b838110156104f35781810151838201526020016104db565b50505050905090810190601f1680156105205780820380516001836020036101000a031916815260200191505b5086810385528a5181528a516020918201918c019080838360005b8381101561055357818101518382015260200161053b565b50505050905090810190601f1680156105805780820380516001836020036101000a031916815260200191505b5086810384528951815289516020918201918b019080838360005b838110156105b357818101518382015260200161059b565b50505050905090810190601f1680156105e05780820380516001836020036101000a031916815260200191505b5086810383528851815288516020918201918a019080838360005b838110156106135781810151838201526020016105fb565b50505050905090810190601f1680156106405780820380516001836020036101000a031916815260200191505b50868103825287518152875160209182019189019080838360005b8381101561067357818101518382015260200161065b565b50505050905090810190601f1680156106a05780820380516001836020036101000a031916815260200191505b509e50505050505050505050505050505060405180910390f35b6101ea600480360360208110156106d057600080fd5b50356120f5565b610784600480360360608110156106ed57600080fd5b81359190810190604081016020820135600160201b81111561070e57600080fd5b82018360208201111561072057600080fd5b803590602001918460018302840111600160201b8311171561074157600080fd5b91908080601f0160208091040260200160405190810160405280939291908181526020018383808284376000920191909152509295505091359250612538915050565b6040518089815260200180602001888152602001878152602001806020018660088111156107ae57fe5b60ff168152602001856001600160a01b03166001600160a01b031681526020018060200184810384528b818151815260200191508051906020019080838360005b838110156108075781810151838201526020016107ef565b50505050905090810190601f1680156108345780820380516001836020036101000a031916815260200191505b5084810383528851815288516020918201918a019080838360005b8381101561086757818101518382015260200161084f565b50505050905090810190601f1680156108945780820380516001836020036101000a031916815260200191505b50848103825285518152855160209182019187019080838360005b838110156108c75781810151838201526020016108af565b50505050905090810190601f1680156108f45780820380516001836020036101000a031916815260200191505b509b50505050505050505050505060405180910390f35b6101ea6004803603602081101561092157600080fd5b503561284b565b6101ea6004803603602081101561093e57600080fd5b5035612c51565b6101ea6004803603604081101561095b57600080fd5b81359190810190604081016020820135600160201b81111561097c57600080fd5b82018360208201111561098e57600080fd5b803590602001918460018302840111600160201b831117156109af57600080fd5b91908080601f016020809104026020016040519081016040528093929190818152602001838380828437600092019190915250929550613077945050505050565b6101ea60048036036020811015610a0657600080fd5b50356001600160a01b03166130c3565b6101ea60048036036060811015610a2c57600080fd5b81359190810190604081016020820135600160201b811115610a4d57600080fd5b820183602082011115610a5f57600080fd5b803590602001918460018302840111600160201b83111715610a8057600080fd5b91908080601f0160208091040260200160405190810160405280939291908181526020018383808284376000920191909152509295949360208101935035915050600160201b811115610ad257600080fd5b820183602082011115610ae457600080fd5b803590602001918460018302840111600160201b83111715610b0557600080fd5b91908080601f01602080910402602001604051908101604052809392919081815260200183838082843760009201919091525092955061310d945050505050565b610bf360048036036060811015610b5c57600080fd5b81359190810190604081016020820135600160201b811115610b7d57600080fd5b820183602082011115610b8f57600080fd5b803590602001918460018302840111600160201b83111715610bb057600080fd5b91908080601f0160208091040260200160405190810160405280939291908181526020018383808284376000920191909152509295505091359250613572915050565b6040518080602001876001600160a01b03166001600160a01b031681526020018060200180602001866001600160a01b03166001600160a01b031681526020018060200185810385528b818151815260200191508051906020019080838360005b83811015610c6c578181015183820152602001610c54565b50505050905090810190601f168015610c995780820380516001836020036101000a031916815260200191505b5085810384528951815289516020918201918b019080838360005b83811015610ccc578181015183820152602001610cb4565b50505050905090810190601f168015610cf95780820380516001836020036101000a031916815260200191505b5085810383528851815288516020918201918a019080838360005b83811015610d2c578181015183820152602001610d14565b50505050905090810190601f168015610d595780820380516001836020036101000a031916815260200191505b50858103825286518152865160209182019188019080838360005b83811015610d8c578181015183820152602001610d74565b50505050905090810190601f168015610db95780820380516001836020036101000a031916815260200191505b509a505050505050505050505060405180910390f35b6101ea60048036036020811015610de557600080fd5b50356138f9565b6101b960048036036020811015610e0257600080fd5b50356001600160a01b0316613cfe565b6101b960048036036020811015610e2857600080fd5b50356001600160a01b0316613d37565b6101ea6004803603610120811015610e4f57600080fd5b810190602081018135600160201b811115610e6957600080fd5b820183602082011115610e7b57600080fd5b803590602001918460018302840111600160201b83111715610e9c57600080fd5b91908080601f0160208091040260200160405190810160405280939291908181526020018383808284376000920191909152509295949360208101935035915050600160201b811115610eee57600080fd5b820183602082011115610f0057600080fd5b803590602001918460018302840111600160201b83111715610f2157600080fd5b91908080601f0160208091040260200160405190810160405280939291908181526020018383808284376000920191909152509295949360208101935035915050600160201b811115610f7357600080fd5b820183602082011115610f8557600080fd5b803590602001918460018302840111600160201b83111715610fa657600080fd5b91908080601f0160208091040260200160405190810160405280939291908181526020018383808284376000920191909152509295949360208101935035915050600160201b811115610ff857600080fd5b82018360208201111561100a57600080fd5b803590602001918460018302840111600160201b8311171561102b57600080fd5b91908080601f0160208091040260200160405190810160405280939291908181526020018383808284376000920191909152509295949360208101935035915050600160201b81111561107d57600080fd5b82018360208201111561108f57600080fd5b803590602001918460018302840111600160201b831117156110b057600080fd5b91908080601f0160208091040260200160405190810160405280939291908181526020018383808284376000920191909152509295843595602086013595919450925060608101915060400135600160201b81111561110e57600080fd5b82018360208201111561112057600080fd5b803590602001918460018302840111600160201b8311171561114157600080fd5b91908080601f0160208091040260200160405190810160405280939291908181526020018383808284376000920191909152509295949360208101935035915050600160201b81111561119357600080fd5b8201836020820111156111a557600080fd5b803590602001918460018302840111600160201b831117156111c657600080fd5b91908080601f016020809104026020016040519081016040528093929190818152602001838380828437600092019190915250929550613d71945050505050565b6112246004803603602081101561121d57600080fd5b5035614393565b6040518082600881111561123457fe5b60ff16815260200191505060405180910390f35b6101ea6004803603602081101561125e57600080fd5b810190602081018135600160201b81111561127857600080fd5b82018360208201111561128a57600080fd5b803590602001918460018302840111600160201b831117156112ab57600080fd5b91908080601f0160208091040260200160405190810160405280939291908181526020018383808284376000920191909152509295506143b3945050505050565b6101ea6004803603602081101561130257600080fd5b5035614400565b61033961480d565b6101ea6004803603602081101561132757600080fd5b50356001600160a01b0316614814565b610339614862565b60006001600160a01b03821661135457600080fd5b506001600160a01b03166000908152600560205260409020546301000000900460ff1690565b6000818152600360205260409020600401546001600160a01b03163381146113a157600080fd5b6113aa33611c87565b6113b357600080fd5b6000828152600360208181526040808420808401805460ff60a01b1916600160a11b179055600483529084209282528254600181810180865594865292909420815460179095020193845581810154848301556002808201805494959294929361142e938386019391811615610100026000190116046148d8565b506003828101805491830180546001600160a01b0319166001600160a01b0390931692909217808355905460ff600160a01b9182900416929160ff60a01b19169083600881111561147b57fe5b02179055506004828101805491830180546001600160a01b0319166001600160a01b03909316929092178255600580850180549293926114d19286019190600260001960018316156101000201909116046148d8565b50600282810180546114f69284810192916000196101006001831615020116046148d8565b506003820181600301908054600181600116156101000203166002900461151e9291906148d8565b50600482018160040190805460018160011615610100020316600290046115469291906148d8565b50600591820154910155600a828101805491830180546001600160a01b0319166001600160a01b03909316929092178255600b80850180549293926115a19286019190600260001960018316156101000201909116046148d8565b50600282810180546115c69284810192916000196101006001831615020116046148d8565b505050600d828101805490918301906115f59082908490600260001961010060018416150201909116046148d8565b506001820154816001015560028201548160020155600382018160030190805460018160011615610100020316600290046116319291906148d8565b50600482018160040190805460018160011615610100020316600290046116599291906148d8565b5050506012828101805491830180546001600160a01b0319166001600160a01b03909316929092178255601380850180549293926116ad9286019190600260001960018316156101000201909116046148d8565b50600282810180546116d29284810192916000196101006001831615020116046148d8565b50505060158281015490820180546001600160a01b0319166001600160a01b03909216919091179055601680830180546117229284019190600260001960018316156101000201909116046148d8565b50506040805185815290517f25727bef8a186dd95a062151451f2d651551b53124c18208d7653b1217ae31ba9350908190036020019150a15050565b82600260008281526003602081905260409091200154600160a01b900460ff16600881111561178957fe5b1461179357600080fd5b6000848152600360205260409020600a01546001600160a01b03163381146117ba57600080fd5b6117c333613cfe565b6117cc57600080fd5b600085815260036020818152604090922090810180546001600160a01b03191633179055855161180492600b9092019187019061495d565b506000858152600360209081526040909120845161182a92600c9092019186019061495d565b506000858152600360208181526040808420808401805460ff60a01b1916600360a01b17905560048352908420928252825460018181018086559486529290942081546017909502019384558181015484830155600280820180549495929492936118a6938386019391811615610100026000190116046148d8565b506003828101805491830180546001600160a01b0319166001600160a01b0390931692909217808355905460ff600160a01b9182900416929160ff60a01b1916908360088111156118f357fe5b02179055506004828101805491830180546001600160a01b0319166001600160a01b03909316929092178255600580850180549293926119499286019190600260001960018316156101000201909116046148d8565b506002828101805461196e9284810192916000196101006001831615020116046148d8565b50600382018160030190805460018160011615610100020316600290046119969291906148d8565b50600482018160040190805460018160011615610100020316600290046119be9291906148d8565b50600591820154910155600a828101805491830180546001600160a01b0319166001600160a01b03909316929092178255600b8085018054929392611a199286019190600260001960018316156101000201909116046148d8565b5060028281018054611a3e9284810192916000196101006001831615020116046148d8565b505050600d82810180549091830190611a6d9082908490600260001961010060018416150201909116046148d8565b50600182015481600101556002820154816002015560038201816003019080546001816001161561010002031660029004611aa99291906148d8565b5060048201816004019080546001816001161561010002031660029004611ad19291906148d8565b5050506012828101805491830180546001600160a01b0319166001600160a01b0390931692909217825560138085018054929392611b259286019190600260001960018316156101000201909116046148d8565b5060028281018054611b4a9284810192916000196101006001831615020116046148d8565b50505060158281015490820180546001600160a01b0319166001600160a01b0390921691909117905560168083018054611b9a9284019190600260001960018316156101000201909116046148d8565b50506040805188815290517fa22971300ba7d9ca2113cf57c3238cde86a32cfba0c31a13ad86a23bde3facf29350908190036020019150a15050505050565b60009081526004602052604090205490565b6001600160a01b038116611bfe57600080fd5b611c0781613d37565b15611c1157600080fd5b6001600160a01b03166000908152600560205260409020805463ff00000019166301000000179055565b6001600160a01b038116611c4e57600080fd5b611c5781613cfe565b15611c6157600080fd5b6001600160a01b03166000908152600560205260409020805461ff001916610100179055565b60006001600160a01b038216611c9c57600080fd5b506001600160a01b031660009081526005602052604090205460ff1690565b6000806000806060806060806060600360008d81526020019081526020016000206000015460001415611ced57600080fd5b60008c815260036020908152604091829020825180840190935260078352661c1c9bd91d58dd60ca1b928201929092528c51908d01207f36a4a183f82db747ab399ca476ab84cc3def6abe3ac63748d03b4584af38d0571415611d5a575060008c81526003602052604090205b604080518082019091526007815266686973746f727960c81b6020918201528c51908d01207f5cb4ee416d23b95cd5367c15d6b361ec02394b3d48d629418b0e5e7eda6758581415611dd15760008d815260046020526040902080548c908110611dc057fe5b906000526020600020906017020190505b8054600180830154600384015460048501546005860180546040805160206002610100998516159990990260001901909316889004601f810184900484028201840190925281815295966001600160a01b03958616969590941694929360068a019360078b019360088c0193928c01928791830182828015611e945780601f10611e6957610100808354040283529160200191611e94565b820191906000526020600020905b815481529060010190602001808311611e7757829003601f168201915b5050875460408051602060026001851615610100026000190190941693909304601f8101849004840282018401909252818152959a5089945092508401905082828015611f225780601f10611ef757610100808354040283529160200191611f22565b820191906000526020600020905b815481529060010190602001808311611f0557829003601f168201915b5050865460408051602060026001851615610100026000190190941693909304601f810184900484028201840190925281815295995088945092508401905082828015611fb05780601f10611f8557610100808354040283529160200191611fb0565b820191906000526020600020905b815481529060010190602001808311611f9357829003601f168201915b5050855460408051602060026001851615610100026000190190941693909304601f81018490048402820184019092528181529598508794509250840190508282801561203e5780601f106120135761010080835404028352916020019161203e565b820191906000526020600020905b81548152906001019060200180831161202157829003601f168201915b5050845460408051602060026001851615610100026000190190941693909304601f8101849004840282018401909252818152959750869450925084019050828280156120cc5780601f106120a1576101008083540402835291602001916120cc565b820191906000526020600020905b8154815290600101906020018083116120af57829003601f168201915b505050505090509950995099509950995099509950995099505093979b92969a50939750939750565b80600660008281526003602081905260409091200154600160a01b900460ff16600881111561212057fe5b1461212a57600080fd5b600082815260036020819052604090912001546001600160a01b031633811461215257600080fd5b6000838152600360205260409020601201546001600160a01b031633811461217957600080fd5b61218233613d37565b61218b57600080fd5b6000848152600360208181526040808420808401805460ff60a01b1916600760a01b1790556004835290842092825282546001818101808655948652929094208154601790950201938455818101548483015560028082018054949592949293612206938386019391811615610100026000190116046148d8565b506003828101805491830180546001600160a01b0319166001600160a01b0390931692909217808355905460ff600160a01b9182900416929160ff60a01b19169083600881111561225357fe5b02179055506004828101805491830180546001600160a01b0319166001600160a01b03909316929092178255600580850180549293926122a99286019190600260001960018316156101000201909116046148d8565b50600282810180546122ce9284810192916000196101006001831615020116046148d8565b50600382018160030190805460018160011615610100020316600290046122f69291906148d8565b506004820181600401908054600181600116156101000203166002900461231e9291906148d8565b50600591820154910155600a828101805491830180546001600160a01b0319166001600160a01b03909316929092178255600b80850180549293926123799286019190600260001960018316156101000201909116046148d8565b506002828101805461239e9284810192916000196101006001831615020116046148d8565b505050600d828101805490918301906123cd9082908490600260001961010060018416150201909116046148d8565b506001820154816001015560028201548160020155600382018160030190805460018160011615610100020316600290046124099291906148d8565b50600482018160040190805460018160011615610100020316600290046124319291906148d8565b5050506012828101805491830180546001600160a01b0319166001600160a01b03909316929092178255601380850180549293926124859286019190600260001960018316156101000201909116046148d8565b50600282810180546124aa9284810192916000196101006001831615020116046148d8565b50505060158281015490820180546001600160a01b0319166001600160a01b03909216919091179055601680830180546124fa9284019190600260001960018316156101000201909116046148d8565b50506040805187815290517f9a96442e96ac96ba57e48273f290bf3bb9c6b0b2c86843cc4bf2353119918fdf9350908190036020019150a150505050565b60008381526003602052604081205460609082908190839082908190839061255f57600080fd5b60008b815260036020908152604091829020825180840190935260078352661c1c9bd91d58dd60ca1b928201929092528b51908c01207f36a4a183f82db747ab399ca476ab84cc3def6abe3ac63748d03b4584af38d05714156125cc575060008b81526003602052604090205b604080518082019091526007815266686973746f727960c81b6020918201528b51908c01207f5cb4ee416d23b95cd5367c15d6b361ec02394b3d48d629418b0e5e7eda67585814156126435760008c815260046020526040902080548b90811061263257fe5b906000526020600020906017020190505b6009810154600e820154600f8301546003840154600a850154600d8601805460408051602060026101006001861615026000190190941693909304601f81018490048402820184019092528181529296959460108a0194600160a01b90910460ff16936001600160a01b0390911692600b8b0192899183018282801561270a5780601f106126df5761010080835404028352916020019161270a565b820191906000526020600020905b8154815290600101906020018083116126ed57829003601f168201915b5050875460408051602060026001851615610100026000190190941693909304601f8101849004840282018401909252818152959c50899450925084019050828280156127985780601f1061276d57610100808354040283529160200191612798565b820191906000526020600020905b81548152906001019060200180831161277b57829003601f168201915b5050845460408051602060026001851615610100026000190190941693909304601f8101849004840282018401909252818152959950869450925084019050828280156128265780601f106127fb57610100808354040283529160200191612826565b820191906000526020600020905b81548152906001019060200180831161280957829003601f168201915b5050505050905098509850985098509850985098509850509397509397509397509397565b80600360008281526003602081905260409091200154600160a01b900460ff16600881111561287657fe5b1461288057600080fd5b6128893361133f565b61289257600080fd5b60008281526003602081815260408084206015810180546001600160a01b03191633179055808401805460ff60a01b1916600160a21b1790556004835290842092825282546001818101808655948652929094208154601790950201938455818101548483015560028082018054949592949293612921938386019391811615610100026000190116046148d8565b506003828101805491830180546001600160a01b0319166001600160a01b0390931692909217808355905460ff600160a01b9182900416929160ff60a01b19169083600881111561296e57fe5b02179055506004828101805491830180546001600160a01b0319166001600160a01b03909316929092178255600580850180549293926129c49286019190600260001960018316156101000201909116046148d8565b50600282810180546129e99284810192916000196101006001831615020116046148d8565b5060038201816003019080546001816001161561010002031660029004612a119291906148d8565b5060048201816004019080546001816001161561010002031660029004612a399291906148d8565b50600591820154910155600a828101805491830180546001600160a01b0319166001600160a01b03909316929092178255600b8085018054929392612a949286019190600260001960018316156101000201909116046148d8565b5060028281018054612ab99284810192916000196101006001831615020116046148d8565b505050600d82810180549091830190612ae89082908490600260001961010060018416150201909116046148d8565b50600182015481600101556002820154816002015560038201816003019080546001816001161561010002031660029004612b249291906148d8565b5060048201816004019080546001816001161561010002031660029004612b4c9291906148d8565b5050506012828101805491830180546001600160a01b0319166001600160a01b0390931692909217825560138085018054929392612ba09286019190600260001960018316156101000201909116046148d8565b5060028281018054612bc59284810192916000196101006001831615020116046148d8565b50505060158281015490820180546001600160a01b0319166001600160a01b0390921691909117905560168083018054612c159284019190600260001960018316156101000201909116046148d8565b50506040805185815290517ffd054e59d299873fab61a3c67d86d3a139b75dcd5cd82894d8983fc5e2669c829350908190036020019150a15050565b80600760008281526003602081905260409091200154600160a01b900460ff166008811115612c7c57fe5b14612c8657600080fd5b6000828152600360205260409020601501546001600160a01b0316338114612cad57600080fd5b612cb63361133f565b612cbf57600080fd5b600083815260036020818152604080842080840180546001600160a01b031916331760ff60a01b1916600160a31b1790556004835290842092825282546001818101808655948652929094208154601790950201938455818101548483015560028082018054949592949293612d46938386019391811615610100026000190116046148d8565b506003828101805491830180546001600160a01b0319166001600160a01b0390931692909217808355905460ff600160a01b9182900416929160ff60a01b191690836008811115612d9357fe5b02179055506004828101805491830180546001600160a01b0319166001600160a01b0390931692909217825560058085018054929392612de99286019190600260001960018316156101000201909116046148d8565b5060028281018054612e0e9284810192916000196101006001831615020116046148d8565b5060038201816003019080546001816001161561010002031660029004612e369291906148d8565b5060048201816004019080546001816001161561010002031660029004612e5e9291906148d8565b50600591820154910155600a828101805491830180546001600160a01b0319166001600160a01b03909316929092178255600b8085018054929392612eb99286019190600260001960018316156101000201909116046148d8565b5060028281018054612ede9284810192916000196101006001831615020116046148d8565b505050600d82810180549091830190612f0d9082908490600260001961010060018416150201909116046148d8565b50600182015481600101556002820154816002015560038201816003019080546001816001161561010002031660029004612f499291906148d8565b5060048201816004019080546001816001161561010002031660029004612f719291906148d8565b5050506012828101805491830180546001600160a01b0319166001600160a01b0390931692909217825560138085018054929392612fc59286019190600260001960018316156101000201909116046148d8565b5060028281018054612fea9284810192916000196101006001831615020116046148d8565b50505060158281015490820180546001600160a01b0319166001600160a01b039092169190911790556016808301805461303a9284019190600260001960018316156101000201909116046148d8565b50506040805186815290517f8a746d5b91a9a334d1abbeee7d031aac6d5c59ea6e982ac06aef4346cce5749e9350908190036020019150a1505050565b60008281526004602052604081208054600019810190811061309557fe5b90600052602060002090601702019050818160160190805190602001906130bd92919061495d565b50505050565b6001600160a01b0381166130d657600080fd5b6130df81611c87565b156130e957600080fd5b6001600160a01b03166000908152600560205260409020805460ff19166001179055565b82600560008281526003602081905260409091200154600160a01b900460ff16600881111561313857fe5b1461314257600080fd5b61314b33613d37565b61315457600080fd5b60008481526003602081815260409092209081018054336001600160a01b031991821681179092556012830180549091169091179055845161319e9260139092019186019061495d565b50600084815260036020908152604090912083516131c49260149092019185019061495d565b506000848152600360208181526040808420808401805460ff60a01b1916600360a11b1790556004835290842092825282546001818101808655948652929094208154601790950201938455818101548483015560028082018054949592949293613240938386019391811615610100026000190116046148d8565b506003828101805491830180546001600160a01b0319166001600160a01b0390931692909217808355905460ff600160a01b9182900416929160ff60a01b19169083600881111561328d57fe5b02179055506004828101805491830180546001600160a01b0319166001600160a01b03909316929092178255600580850180549293926132e39286019190600260001960018316156101000201909116046148d8565b50600282810180546133089284810192916000196101006001831615020116046148d8565b50600382018160030190805460018160011615610100020316600290046133309291906148d8565b50600482018160040190805460018160011615610100020316600290046133589291906148d8565b50600591820154910155600a828101805491830180546001600160a01b0319166001600160a01b03909316929092178255600b80850180549293926133b39286019190600260001960018316156101000201909116046148d8565b50600282810180546133d89284810192916000196101006001831615020116046148d8565b505050600d828101805490918301906134079082908490600260001961010060018416150201909116046148d8565b506001820154816001015560028201548160020155600382018160030190805460018160011615610100020316600290046134439291906148d8565b506004820181600401908054600181600116156101000203166002900461346b9291906148d8565b5050506012828101805491830180546001600160a01b0319166001600160a01b03909316929092178255601380850180549293926134bf9286019190600260001960018316156101000201909116046148d8565b50600282810180546134e49284810192916000196101006001831615020116046148d8565b50505060158281015490820180546001600160a01b0319166001600160a01b03909216919091179055601680830180546135349284019190600260001960018316156101000201909116046148d8565b50506040805187815290517fb6589947d486bf61c31a4e6d2e81d4d2c93e7832fdda27f2492009b4755c29ed9350908190036020019150a150505050565b60008381526003602052604081205460609190829081908390829061359657600080fd5b600089815260036020908152604091829020825180840190935260078352661c1c9bd91d58dd60ca1b928201929092528951908a01207f36a4a183f82db747ab399ca476ab84cc3def6abe3ac63748d03b4584af38d0571415613603575060008981526003602052604090205b604080518082019091526007815266686973746f727960c81b6020918201528951908a01207f5cb4ee416d23b95cd5367c15d6b361ec02394b3d48d629418b0e5e7eda675858141561367a5760008a815260046020526040902080548990811061366957fe5b906000526020600020906017020190505b60128101546015820154600c8301805460408051602060026101006001861615026000190190941693909304601f810184900484028201840190925281815292946001600160a01b0390811694601388019460148901949290911692601689019288919083018282801561372f5780601f106137045761010080835404028352916020019161372f565b820191906000526020600020905b81548152906001019060200180831161371257829003601f168201915b5050875460408051602060026001851615610100026000190190941693909304601f8101849004840282018401909252818152959b50899450925084019050828280156137bd5780601f10613792576101008083540402835291602001916137bd565b820191906000526020600020905b8154815290600101906020018083116137a057829003601f168201915b5050865460408051602060026001851615610100026000190190941693909304601f81018490048402820184019092528181529599508894509250840190508282801561384b5780601f106138205761010080835404028352916020019161384b565b820191906000526020600020905b81548152906001019060200180831161382e57829003601f168201915b5050845460408051602060026001851615610100026000190190941693909304601f8101849004840282018401909252818152959850869450925084019050828280156138d95780601f106138ae576101008083540402835291602001916138d9565b820191906000526020600020905b8154815290600101906020018083116138bc57829003601f168201915b505050505090509650965096509650965096505093975093979195509350565b806000808281526003602081905260409091200154600160a01b900460ff16600881111561392357fe5b1461392d57600080fd5b61393633613cfe565b61393f57600080fd5b6000828152600360208181526040808420600a810180546001600160a01b03191633179055808401805460ff60a01b1916600160a01b17905560048352908420928252825460018181018086559486529290942081546017909502019384558181015484830155600280820180549495929492936139ce938386019391811615610100026000190116046148d8565b506003828101805491830180546001600160a01b0319166001600160a01b0390931692909217808355905460ff600160a01b9182900416929160ff60a01b191690836008811115613a1b57fe5b02179055506004828101805491830180546001600160a01b0319166001600160a01b0390931692909217825560058085018054929392613a719286019190600260001960018316156101000201909116046148d8565b5060028281018054613a969284810192916000196101006001831615020116046148d8565b5060038201816003019080546001816001161561010002031660029004613abe9291906148d8565b5060048201816004019080546001816001161561010002031660029004613ae69291906148d8565b50600591820154910155600a828101805491830180546001600160a01b0319166001600160a01b03909316929092178255600b8085018054929392613b419286019190600260001960018316156101000201909116046148d8565b5060028281018054613b669284810192916000196101006001831615020116046148d8565b505050600d82810180549091830190613b959082908490600260001961010060018416150201909116046148d8565b50600182015481600101556002820154816002015560038201816003019080546001816001161561010002031660029004613bd19291906148d8565b5060048201816004019080546001816001161561010002031660029004613bf99291906148d8565b5050506012828101805491830180546001600160a01b0319166001600160a01b0390931692909217825560138085018054929392613c4d9286019190600260001960018316156101000201909116046148d8565b5060028281018054613c729284810192916000196101006001831615020116046148d8565b50505060158281015490820180546001600160a01b0319166001600160a01b0390921691909117905560168083018054613cc29284019190600260001960018316156101000201909116046148d8565b50506040805185815290517f112c8adc962c1de46b0ae9499cd428dc90feb4c13a4df0c69d7e5e27ab34ae879350908190036020019150a15050565b60006001600160a01b038216613d1357600080fd5b506001600160a01b0316600090815260056020526040902054610100900460ff1690565b60006001600160a01b038216613d4c57600080fd5b506001600160a01b031660009081526005602052604090205462010000900460ff1690565b613d7a33611c87565b613d8357600080fd5b600054613d8e6149cb565b60015460208083019190915282825260a080830180519092018d9052815160409081018d9052825160609081018d905283516080018c9052835142930192909252830185905233908301819052905152613de781614868565b60006080820152613dfc8188888888886148b1565b60008281526003602090815260409182902083518155818401516001820155918301518051849392613e3592600285019291019061495d565b5060608201516003820180546001600160a01b0319166001600160a01b03909216919091178082556080840151919060ff60a01b1916600160a01b836008811115613e7c57fe5b021790555060a082015180516004830180546001600160a01b0319166001600160a01b039092169190911781556020808301518051613ec1926005870192019061495d565b5060408201518051613edd91600284019160209091019061495d565b5060608201518051613ef991600384019160209091019061495d565b5060808201518051613f1591600484019160209091019061495d565b5060a0919091015160059091015560c08201518051600a830180546001600160a01b0319166001600160a01b039092169190911781556020808301518051613f6392600b870192019061495d565b5060408201518051613f7f91600284019160209091019061495d565b50505060e082015180518051600d840191613f9f9183916020019061495d565b5060208281015160018301556040830151600283015560608301518051613fcc926003850192019061495d565b5060808201518051613fe891600484019160209091019061495d565b50505061010082015180516012830180546001600160a01b0319166001600160a01b03909216919091178155602080830151805161402c926013870192019061495d565b506040820151805161404891600284019160209091019061495d565b5050506101208201516015820180546001600160a01b0319166001600160a01b03909216919091179055610140820151805161408e91601684019160209091019061495d565b50505060008281526004602090815260408083208054600181810180845592865294849020865160179092020190815585840151948101949094559084015180519193859390926140e5926002850192019061495d565b5060608201516003820180546001600160a01b0319166001600160a01b03909216919091178082556080840151919060ff60a01b1916600160a01b83600881111561412c57fe5b021790555060a082015180516004830180546001600160a01b0319166001600160a01b039092169190911781556020808301518051614171926005870192019061495d565b506040820151805161418d91600284019160209091019061495d565b50606082015180516141a991600384019160209091019061495d565b50608082015180516141c591600484019160209091019061495d565b5060a0919091015160059091015560c08201518051600a830180546001600160a01b0319166001600160a01b03909216919091178155602080830151805161421392600b870192019061495d565b506040820151805161422f91600284019160209091019061495d565b50505060e082015180518051600d84019161424f9183916020019061495d565b506020828101516001830155604083015160028301556060830151805161427c926003850192019061495d565b506080820151805161429891600484019160209091019061495d565b50505061010082015180516012830180546001600160a01b0319166001600160a01b0390921691909117815560208083015180516142dc926013870192019061495d565b50604082015180516142f891600284019160209091019061495d565b5050506101208201516015820180546001600160a01b0319166001600160a01b03909216919091179055610140820151805161433e91601684019160209091019061495d565b5050600180548101815560008054909101905550506040805183815290517fd29d8a68ca7c8c74be5579719d445aabfe230ed6e6a83aff475a663500eb76099181900360200190a15050505050505050505050565b60009081526003602081905260409091200154600160a01b900460ff1690565b600080546000199081018252600460205260409091208054839281019081106143d857fe5b906000526020600020906017020160160190805190602001906143fc92919061495d565b5050565b600081815260036020819052604090912001546001600160a01b031633811461442857600080fd5b6000828152600360205260409020600a01546001600160a01b031633811461444f57600080fd5b61445833613cfe565b61446157600080fd5b6000838152600360208181526040808420808401805460ff60a01b1916600560a01b17905560048352908420928252825460018181018086559486529290942081546017909502019384558181015484830155600280820180549495929492936144dc938386019391811615610100026000190116046148d8565b506003828101805491830180546001600160a01b0319166001600160a01b0390931692909217808355905460ff600160a01b9182900416929160ff60a01b19169083600881111561452957fe5b02179055506004828101805491830180546001600160a01b0319166001600160a01b039093169290921782556005808501805492939261457f9286019190600260001960018316156101000201909116046148d8565b50600282810180546145a49284810192916000196101006001831615020116046148d8565b50600382018160030190805460018160011615610100020316600290046145cc9291906148d8565b50600482018160040190805460018160011615610100020316600290046145f49291906148d8565b50600591820154910155600a828101805491830180546001600160a01b0319166001600160a01b03909316929092178255600b808501805492939261464f9286019190600260001960018316156101000201909116046148d8565b50600282810180546146749284810192916000196101006001831615020116046148d8565b505050600d828101805490918301906146a39082908490600260001961010060018416150201909116046148d8565b506001820154816001015560028201548160020155600382018160030190805460018160011615610100020316600290046146df9291906148d8565b50600482018160040190805460018160011615610100020316600290046147079291906148d8565b5050506012828101805491830180546001600160a01b0319166001600160a01b039093169290921782556013808501805492939261475b9286019190600260001960018316156101000201909116046148d8565b50600282810180546147809284810192916000196101006001831615020116046148d8565b50505060158281015490820180546001600160a01b0319166001600160a01b03909216919091179055601680830180546147d09284019190600260001960018316156101000201909116046148d8565b50506040805186815290517ff2452d569e5bc407d222a6bcad7d4bb8bac5fae64ce52fa183bd77e34e0cc1479350908190036020019150a1505050565b6000545b90565b6001600160a01b03811661482757600080fd5b61483081613d37565b1561483a57600080fd5b6001600160a01b03166000908152600560205260409020805462ff0000191662010000179055565b60005481565b60c0810180516000908190528151606060209182018190529251604090810184905261010085018051849052805190920184905290510182905261012083015261014090910152565b60e09095018051949094528351602001929092528251604001528151606001525160800152565b828054600181600116156101000203166002900490600052602060002090601f016020900481019282601f10614911578054855561494d565b8280016001018555821561494d57600052602060002091601f016020900482015b8281111561494d578254825591600101919060010190614932565b50614959929150614a51565b5090565b828054600181600116156101000203166002900490600052602060002090601f016020900481019282601f1061499e57805160ff191683800117855561494d565b8280016001018555821561494d579182015b8281111561494d5782518255916020019190600101906149b0565b60405180610160016040528060008152602001600081526020016060815260200160006001600160a01b0316815260200160006008811115614a0957fe5b8152602001614a16614a6b565b8152602001614a23614aaa565b8152602001614a30614ad4565b8152602001614a3d614aaa565b815260006020820152606060409091015290565b61481191905b808211156149595760008155600101614a57565b6040518060c0016040528060006001600160a01b0316815260200160608152602001606081526020016060815260200160608152602001600081525090565b604051806060016040528060006001600160a01b0316815260200160608152602001606081525090565b6040518060a001604052806060815260200160008152602001600081526020016060815260200160608152509056fea265627a7a723158208f938cf437c1c6c872d01db2eb9fc966c1475ebc106a37e12482dffb9e920dd564736f6c63430005100032",
  "source": "// SPDX-License-Identifier: MIT\r\npragma solidity >=0.4.21 <0.9.0;\r\n\r\nimport \"./Structure.sol\";\r\n\r\ncontract SupplyChain {\r\n    event ManufacturerAdded(address indexed _account);\r\n\r\n    //product code\r\n    uint256 public uid;\r\n    uint256 sku;\r\n\r\n    address owner;\r\n\r\n    mapping(uint256 => Structure.Product) products;\r\n    mapping(uint256 => Structure.ProductHistory) productHistory;\r\n    mapping(address => Structure.Roles) roles;\r\n\r\n    function hasManufacturerRole(address _account) public view returns (bool) {\r\n        require(_account != address(0));\r\n        return roles[_account].Manufacturer;\r\n    }\r\n\r\n    function addManufacturerRole(address _account) public {\r\n        require(_account != address(0));\r\n        require(!hasManufacturerRole(_account));\r\n\r\n        roles[_account].Manufacturer = true;\r\n    }\r\n\r\n    function hasThirdPartyRole(address _account) public view returns (bool) {\r\n        require(_account != address(0));\r\n        return roles[_account].ThirdParty;\r\n    }\r\n\r\n    function addThirdPartyRole(address _account) public {\r\n        require(_account != address(0));\r\n        require(!hasThirdPartyRole(_account));\r\n\r\n        roles[_account].ThirdParty = true;\r\n    }\r\n\r\n    function hasDeliveryHubRole(address _account) public view returns (bool) {\r\n        require(_account != address(0));\r\n        return roles[_account].DeliveryHub;\r\n    }\r\n\r\n    function addDeliveryHubRole(address _account) public {\r\n        require(_account != address(0));\r\n        require(!hasDeliveryHubRole(_account));\r\n\r\n        roles[_account].DeliveryHub = true;\r\n    }\r\n\r\n    function hasCustomerRole(address _account) public view returns (bool) {\r\n        require(_account != address(0));\r\n        return roles[_account].Customer;\r\n    }\r\n\r\n    function addCustomerRole(address _account) public {\r\n        require(_account != address(0));\r\n        require(!hasDeliveryHubRole(_account));\r\n\r\n        roles[_account].Customer = true;\r\n    }\r\n\r\n    constructor() public payable {\r\n        owner = msg.sender;\r\n        sku = 1;\r\n        uid = 1;\r\n    }\r\n\r\n    event Manufactured(uint256 uid);\r\n    event PurchasedByThirdParty(uint256 uid);\r\n    event ShippedByManufacturer(uint256 uid);\r\n    event ReceivedByThirdParty(uint256 uid);\r\n    event PurchasedByCustomer(uint256 uid);\r\n    event ShippedByThirdParty(uint256 uid);\r\n    event ReceivedByDeliveryHub(uint256 uid);\r\n    event ShippedByDeliveryHub(uint256 uid);\r\n    event ReceivedByCustomer(uint256 uid);\r\n\r\n    modifier verifyAddress(address add) {\r\n        require(msg.sender == add);\r\n        _;\r\n    }\r\n\r\n    modifier manufactured(uint256 _uid) {\r\n        require(products[_uid].productState == Structure.State.Manufactured);\r\n        _;\r\n    }\r\n\r\n    modifier shippedByManufacturer(uint256 _uid) {\r\n        require(\r\n            products[_uid].productState == Structure.State.ShippedByManufacturer\r\n        );\r\n        _;\r\n    }\r\n\r\n    modifier receivedByThirdParty(uint256 _uid) {\r\n        require(\r\n            products[_uid].productState == Structure.State.ReceivedByThirdParty\r\n        );\r\n        _;\r\n    }\r\n\r\n    modifier purchasedByCustomer(uint256 _uid) {\r\n        require(\r\n            products[_uid].productState == Structure.State.PurchasedByCustomer\r\n        );\r\n        _;\r\n    }\r\n\r\n    modifier shippedByThirdParty(uint256 _uid) {\r\n        require(\r\n            products[_uid].productState == Structure.State.ShippedByThirdParty\r\n        );\r\n        _;\r\n    }\r\n\r\n    modifier receivedByDeliveryHub(uint256 _uid) {\r\n        require(\r\n            products[_uid].productState == Structure.State.ReceivedByDeliveryHub\r\n        );\r\n        _;\r\n    }\r\n\r\n    modifier shippedByDeliveryHub(uint256 _uid) {\r\n        require(\r\n            products[_uid].productState == Structure.State.ShippedByDeliveryHub\r\n        );\r\n        _;\r\n    }\r\n\r\n    modifier receivedByCustomer(uint256 _uid) {\r\n        require(\r\n            products[_uid].productState == Structure.State.ReceivedByCustomer\r\n        );\r\n        _;\r\n    }\r\n\r\n    function manufactureEmptyInitialize(Structure.Product memory product)\r\n        internal\r\n        pure\r\n    {\r\n        address thirdParty;\r\n        string memory transaction;\r\n        string memory thirdPartyLongitude;\r\n        string memory thirdPartyLatitude;\r\n\r\n        address deliveryHub;\r\n        string memory deliveryHubLongitude;\r\n        string memory deliveryHubLatitude;\r\n        address customer;\r\n\r\n        product.thirdparty.thirdParty = thirdParty;\r\n        product.thirdparty.thirdPartyLongitude = thirdPartyLongitude;\r\n        product.thirdparty.thirdPartyLatitude = thirdPartyLatitude;\r\n\r\n        product.deliveryhub.deliveryHub = deliveryHub;\r\n        product.deliveryhub.deliveryHubLongitude = deliveryHubLongitude;\r\n        product.deliveryhub.deliveryHubLatitude = deliveryHubLatitude;\r\n\r\n        product.customer = customer;\r\n        product.transaction = transaction;\r\n    }\r\n\r\n    function manufactureProductInitialize(\r\n        Structure.Product memory product,\r\n        string memory productName,\r\n        uint256 productCode,\r\n        uint256 productPrice,\r\n        string memory productCategory,\r\n        string memory image\r\n    ) internal pure {\r\n        product.productdet.productName = productName;\r\n        product.productdet.productCode = productCode;\r\n        product.productdet.productPrice = productPrice;\r\n        product.productdet.productCategory = productCategory;\r\n     product.productdet.image=image;\r\n    }\r\n\r\n    \r\n    function manufactureProduct(\r\n        string memory manufacturerName,\r\n        string memory manufacturerDetails,\r\n        string memory manufacturerLongitude,\r\n        string memory manufacturerLatitude,\r\n        string memory productName,\r\n        uint256 productCode,\r\n        uint256 productPrice,\r\n        string memory productCategory,\r\n        string memory image\r\n    ) public {\r\n        require(hasManufacturerRole(msg.sender));\r\n        uint256 _uid = uid;\r\n        Structure.Product memory product;\r\n        product.sku = sku;\r\n        product.uid = _uid;\r\n        product.manufacturer.manufacturerName = manufacturerName;\r\n        product.manufacturer.manufacturerDetails = manufacturerDetails;\r\n        product.manufacturer.manufacturerLongitude = manufacturerLongitude;\r\n        product.manufacturer.manufacturerLatitude = manufacturerLatitude;\r\n        product.manufacturer.manufacturedDate = block.timestamp;\r\n        product.image=image;\r\n\r\n        product.owner = msg.sender;\r\n        product.manufacturer.manufacturer = msg.sender;\r\n\r\n        manufactureEmptyInitialize(product);\r\n\r\n        product.productState = Structure.State.Manufactured;\r\n\r\n        manufactureProductInitialize(\r\n            product,\r\n            productName,\r\n            productCode,\r\n            productPrice,\r\n            productCategory,\r\n            image\r\n        );\r\n\r\n        products[_uid] = product;\r\n\r\n        productHistory[_uid].history.push(product);\r\n\r\n        sku++;\r\n        uid = uid + 1;\r\n\r\n        emit Manufactured(_uid);\r\n    }\r\n\r\n    function purchaseByThirdParty(uint256 _uid) public manufactured(_uid) {\r\n        require(hasThirdPartyRole(msg.sender));\r\n        products[_uid].thirdparty.thirdParty = msg.sender;\r\n        products[_uid].productState = Structure.State.PurchasedByThirdParty;\r\n        productHistory[_uid].history.push(products[_uid]);\r\n\r\n        emit PurchasedByThirdParty(_uid);\r\n    }\r\n\r\n    function shipToThirdParty(uint256 _uid)\r\n        public\r\n        verifyAddress(products[_uid].manufacturer.manufacturer)\r\n    {\r\n        require(hasManufacturerRole(msg.sender));\r\n        products[_uid].productState = Structure.State.ShippedByManufacturer;\r\n        productHistory[_uid].history.push(products[_uid]);\r\n\r\n        emit ShippedByManufacturer(_uid);\r\n    }\r\n\r\n\r\n    function receiveByThirdParty(\r\n        uint256 _uid,\r\n        string memory thirdPartyLongitude,\r\n        string memory thirdPartyLatitude\r\n    )\r\n        public\r\n        shippedByManufacturer(_uid)\r\n        verifyAddress(products[_uid].thirdparty.thirdParty)\r\n    {\r\n        require(hasThirdPartyRole(msg.sender));\r\n        products[_uid].owner = msg.sender;\r\n        products[_uid].thirdparty.thirdPartyLongitude = thirdPartyLongitude;\r\n        products[_uid].thirdparty.thirdPartyLatitude = thirdPartyLatitude;\r\n        products[_uid].productState = Structure.State.ReceivedByThirdParty;\r\n        productHistory[_uid].history.push(products[_uid]);\r\n\r\n        emit ReceivedByThirdParty(_uid);\r\n    }\r\n\r\n    \r\n    function purchaseByCustomer(uint256 _uid)\r\n        public\r\n        receivedByThirdParty(_uid)\r\n    {\r\n        require(hasCustomerRole(msg.sender));\r\n        products[_uid].customer = msg.sender;\r\n        products[_uid].productState = Structure.State.PurchasedByCustomer;\r\n        productHistory[_uid].history.push(products[_uid]);\r\n\r\n        emit PurchasedByCustomer(_uid);\r\n    }\r\n\r\n    function shipByThirdParty(uint256 _uid)\r\n        public\r\n        verifyAddress(products[_uid].owner)\r\n        verifyAddress(products[_uid].thirdparty.thirdParty)\r\n    {\r\n        require(hasThirdPartyRole(msg.sender));\r\n        products[_uid].productState = Structure.State.ShippedByThirdParty;\r\n        productHistory[_uid].history.push(products[_uid]);\r\n\r\n        emit ShippedByThirdParty(_uid);\r\n    }\r\n\r\n    ///@dev STEP 8 : Receiveing of product by delivery hub purchased by customer.\r\n    function receiveByDeliveryHub(\r\n        uint256 _uid,\r\n        string memory deliveryHubLongitude,\r\n        string memory deliveryHubLatitude\r\n    ) public shippedByThirdParty(_uid) {\r\n        require(hasDeliveryHubRole(msg.sender));\r\n        products[_uid].owner = msg.sender;\r\n        products[_uid].deliveryhub.deliveryHub = msg.sender;\r\n        products[_uid].deliveryhub.deliveryHubLongitude = deliveryHubLongitude;\r\n        products[_uid].deliveryhub.deliveryHubLatitude = deliveryHubLatitude;\r\n        products[_uid].productState = Structure.State.ReceivedByDeliveryHub;\r\n        productHistory[_uid].history.push(products[_uid]);\r\n\r\n        emit ReceivedByDeliveryHub(_uid);\r\n    }\r\n\r\n    ///@dev STEP 9 : Shipping of product by delivery hub purchased by customer.\r\n    function shipByDeliveryHub(uint256 _uid)\r\n        public\r\n        receivedByDeliveryHub(_uid)\r\n        verifyAddress(products[_uid].owner)\r\n        verifyAddress(products[_uid].deliveryhub.deliveryHub)\r\n    {\r\n        require(hasDeliveryHubRole(msg.sender));\r\n        products[_uid].productState = Structure.State.ShippedByDeliveryHub;\r\n        productHistory[_uid].history.push(products[_uid]);\r\n\r\n        emit ShippedByDeliveryHub(_uid);\r\n    }\r\n\r\n    ///@dev STEP 10 : Shipping of product by delivery hub purchased by customer.\r\n    function receiveByCustomer(uint256 _uid)\r\n        public\r\n        shippedByDeliveryHub(_uid)\r\n        verifyAddress(products[_uid].customer)\r\n    {\r\n        require(hasCustomerRole(msg.sender));\r\n        products[_uid].owner = msg.sender;\r\n        products[_uid].productState = Structure.State.ReceivedByCustomer;\r\n        productHistory[_uid].history.push(products[_uid]);\r\n\r\n        emit ReceivedByCustomer(_uid);\r\n    }\r\n\r\n    ///@dev Fetch product\r\n    function fetchProductPart1(\r\n        uint256 _uid,\r\n        string memory _type,\r\n        uint256 i\r\n    )\r\n        public\r\n        view\r\n        returns (\r\n            uint256,\r\n            uint256,\r\n            address,\r\n            address,\r\n            string memory,\r\n            string memory,\r\n            string memory,\r\n            string memory,\r\n            string memory\r\n        )\r\n    {\r\n        require(products[_uid].uid != 0);\r\n        Structure.Product storage product = products[_uid];\r\n        if (keccak256(bytes(_type)) == keccak256(bytes(\"product\"))) {\r\n            product = products[_uid];\r\n        }\r\n        if (keccak256(bytes(_type)) == keccak256(bytes(\"history\"))) {\r\n            product = productHistory[_uid].history[i];\r\n        }\r\n        return (\r\n            product.uid,\r\n            product.sku,\r\n            product.owner,\r\n            product.manufacturer.manufacturer,\r\n            product.manufacturer.manufacturerName,\r\n            product.manufacturer.manufacturerDetails,\r\n            product.manufacturer.manufacturerLongitude,\r\n            product.manufacturer.manufacturerLatitude,\r\n            product.image\r\n        );\r\n    }\r\n\r\n    ///@dev Fetch product\r\n    function fetchProductPart2(\r\n        uint256 _uid,\r\n        string memory _type,\r\n        uint256 i\r\n    )\r\n        public\r\n        view\r\n        returns (\r\n            uint256,\r\n            string memory,\r\n            uint256,\r\n            uint256,\r\n            string memory,\r\n            Structure.State,\r\n            address,\r\n            string memory\r\n        )\r\n    {\r\n        require(products[_uid].uid != 0);\r\n        Structure.Product storage product = products[_uid];\r\n        if (keccak256(bytes(_type)) == keccak256(bytes(\"product\"))) {\r\n            product = products[_uid];\r\n        }\r\n        if (keccak256(bytes(_type)) == keccak256(bytes(\"history\"))) {\r\n            product = productHistory[_uid].history[i];\r\n        }\r\n        return (\r\n            product.manufacturer.manufacturedDate,\r\n            product.productdet.productName,\r\n            product.productdet.productCode,\r\n            product.productdet.productPrice,\r\n            product.productdet.productCategory,\r\n            product.productState,\r\n            product.thirdparty.thirdParty,\r\n            product.thirdparty.thirdPartyLongitude\r\n        );\r\n    }\r\n\r\n    function fetchProductPart3(\r\n        uint256 _uid,\r\n        string memory _type,\r\n        uint256 i\r\n    )\r\n        public\r\n        view\r\n        returns (\r\n            string memory,\r\n            address,\r\n            string memory,\r\n            string memory,\r\n            address,\r\n            string memory\r\n        )\r\n    {\r\n        require(products[_uid].uid != 0);\r\n        Structure.Product storage product = products[_uid];\r\n        if (keccak256(bytes(_type)) == keccak256(bytes(\"product\"))) {\r\n            product = products[_uid];\r\n        }\r\n        if (keccak256(bytes(_type)) == keccak256(bytes(\"history\"))) {\r\n            product = productHistory[_uid].history[i];\r\n        }\r\n        return (\r\n            product.thirdparty.thirdPartyLatitude,\r\n            product.deliveryhub.deliveryHub,\r\n            product.deliveryhub.deliveryHubLongitude,\r\n            product.deliveryhub.deliveryHubLatitude,\r\n            product.customer,\r\n            product.transaction\r\n        );\r\n    }\r\n\r\n    function fetchProductCount() public view returns (uint256) {\r\n        return uid;\r\n    }\r\n\r\n    function fetchProductHistoryLength(uint256 _uid)\r\n        public\r\n        view\r\n        returns (uint256)\r\n    {\r\n        return productHistory[_uid].history.length;\r\n    }\r\n\r\n    function fetchProductState(uint256 _uid)\r\n        public\r\n        view\r\n        returns (Structure.State)\r\n    {\r\n        return products[_uid].productState;\r\n    }\r\n\r\n    function setTransactionHashOnManufacture(string memory tran) public {\r\n        productHistory[uid - 1].history[\r\n            productHistory[uid - 1].history.length - 1\r\n        ]\r\n            .transaction = tran;\r\n    }\r\n\r\n    function setTransactionHash(uint256 _uid, string memory tran) public {\r\n        Structure.Product storage p =\r\n            productHistory[_uid].history[\r\n                productHistory[_uid].history.length - 1\r\n            ];\r\n        p.transaction = tran;\r\n    }\r\n}\r\n",
  "sourcePath": "C:\\Users\\Kenil\\Desktop\\DreamTeam_LOC\\basbhai\\DreamTeam_loc5.0\\contracts\\SupplyChain.sol",
  "compiler": {
    "name": "solc",
    "version": "0.5.16+commit.9c3226ce.Emscripten.clang"
  },
  "schemaVersion": "3.4.11",
  "updatedAt": "2023-03-12T01:06:11.333Z",
  "networkType": "ethereum",
  "devdoc": {
    "methods": {
      "fetchProductPart1(uint256,string,uint256)": {
        "details": "Fetch product"
      },
      "fetchProductPart2(uint256,string,uint256)": {
        "details": "Fetch product"
      },
      "receiveByCustomer(uint256)": {
        "details": "STEP 10 : Shipping of product by delivery hub purchased by customer."
      },
      "receiveByDeliveryHub(uint256,string,string)": {
        "details": "STEP 8 : Receiveing of product by delivery hub purchased by customer."
      },
      "shipByDeliveryHub(uint256)": {
        "details": "STEP 9 : Shipping of product by delivery hub purchased by customer."
      }
    }
  },
  "userdoc": {
    "methods": {}
  }
}